:020000040800F2
:1000000000000220512E0008892700088B270008D5
:100010008D2700088F2700089127000800000000A6
:100020000000000000000000000000007146000811
:100030009327000800000000A146000813460008AE
:10004000A12E0008A12E0008A12E0008A12E000854
:10005000A12E0008A12E0008A12E0008A12E000844
:10006000A12E0008A12E0008A12E0008A12E000834
:10007000A12E0008A12E0008A12E0008A12E000824
:10008000A12E0008A12E0008A12E0008A12E000814
:10009000A12E0008A12E0008A12E0008A12E000804
:1000A000A12E0008A12E0008A12E0008A12E0008F4
:1000B000A12E0008A12E0008A12E0008A12E0008E4
:1000C000A12E0008A12E0008A12E0008A12E0008D4
:1000D000A12E0008A12E0008A12E0008A12E0008C4
:1000E000A12E0008A12E0008A12E0008A12E0008B4
:1000F000A12E0008A12E0008A12E0008A12E0008A4
:10010000A12E0008A12E0008A12E0008A12E000893
:10011000A12E0008A12E000895270008A527000899
:10012000A12E0008A12E0008A12E0008A12E000873
:10013000A12E0008A12E0008A12E0008A12E000863
:10014000A12E0008A12E0008A12E0008A12E000853
:10015000A12E0008A12E0008A12E0008A12E000843
:10016000A12E0008A12E0008A12E0008A12E000833
:10017000A12E0008A12E0008A12E000800000000FA
:08018000A12E0008A12E0008C9
:1001C00010B5054C237833B9044B13B10448AFF391
:1001D00000800123237010BDC00900200000000032
:1001E000ECA9000808B5034B1BB103490348AFF362
:1001F000008008BD00000000C4090020ECA9000830
:1002000081F0004102E000BF83F0004330B54FEAC7
:1002100041044FEA430594EA050F08BF90EA020F34
:100220001FBF54EA000C55EA020C7FEA645C7FEAC7
:10023000655C00F0E2804FEA5454D4EB5555B8BFEA
:100240006D420CDD2C4480EA020281EA030382EA5B
:10025000000083EA010180EA020281EA0303362DED
:1002600088BF30BD11F0004F4FEA01314FF4801CC0
:100270004CEA113102D0404261EB410113F0004FD2
:100280004FEA03334CEA133302D0524263EB430389
:1002900094EA050F00F0A780A4F10104D5F1200E27
:1002A0000DDB02FA0EFC22FA05F2801841F1000182
:1002B00003FA0EF2801843FA05F359410EE0A5F156
:1002C00020050EF1200E012A03FA0EFC28BF4CF087
:1002D000020C43FA05F3C01851EBE37101F000453D
:1002E00007D54FF0000EDCF1000C7EEB00006EEB4A
:1002F0000101B1F5801F1BD3B1F5001F0CD34908D4
:100300005FEA30004FEA3C0C04F101044FEA44522A
:1003100012F5800F80F09A80BCF1004F08BF5FEAB1
:10032000500C50F1000041EB045141EA050130BD91
:100330005FEA4C0C404141EB0101013C28BFB1F5A3
:10034000801FE9D291F0000F04BF01460020B1FAEE
:1003500081F308BF2033A3F10B03B3F120020CDAC1
:100360000C3208DD02F1140CC2F10C0201FA0CF09F
:1003700021FA02F10CE002F11402D8BFC2F1200C04
:1003800001FA02F120FA0CFCDCBF41EA0C019040BA
:10039000E41AA2BF01EB0451294330BD6FEA040403
:1003A0001F3C1CDA0C340EDC04F11404C4F12002EE
:1003B00020FA04F001FA02F340EA030021FA04F300
:1003C00045EA030130BDC4F10C04C4F1200220FA57
:1003D00002F001FA04F340EA0300294630BD21FA95
:1003E00004F0294630BD94F0000F83F4801306BF5B
:1003F00081F480110134013D4EE77FEA645C18BF4F
:100400007FEA655C29D094EA050F08BF90EA020FE5
:1004100005D054EA000C04BF1946104630BD91EADD
:10042000030F1EBF0021002030BD5FEA545C05D1E0
:100430004000494128BF41F0004130BD14F580041F
:100440003CBF01F5801130BD01F0004545F0FE4193
:1004500041F470014FF0000030BD7FEA645C1ABFC8
:10046000194610467FEA655C1CBF0B46024650EAFF
:10047000013406BF52EA033591EA030F41F400212B
:1004800030BD00BF90F0000F04BF0021704730B5B1
:100490004FF4806404F132044FF000054FF0000186
:1004A00050E700BF90F0000F04BF0021704730B547
:1004B0004FF4806404F1320410F0004548BF40421C
:1004C0004FF000013EE700BF42004FEAE2014FEA71
:1004D00031014FEA02701FBF12F07F4393F07F4F4C
:1004E00081F06051704732F07F4208BF704793F04F
:1004F0007F4F04BF41F40021704730B54FF4607462
:1005000001F0004521F000411CE700BF50EA010264
:1005100008BF704730B54FF000050AE050EA01020D
:1005200008BF704730B511F0004502D5404261EB7D
:1005300041014FF4806404F132045FEA915C3FF4BE
:10054000D8AE4FF003025FEADC0C18BF03325FEA5B
:10055000DC0C18BF033202EBDC02C2F1200300FA0C
:1005600003FC20FA02F001FA03FE40EA0E0021FA31
:1005700002F11444BDE600BF4FF0FF3C06E000BFAF
:100580004FF0010C02E000BF4FF0010C4DF804CD1C
:100590004FEA410C7FEA6C5C4FEA430C18BF7FEADC
:1005A0006C5C1BD001B050EA410C0CBF52EA430C0A
:1005B00091EA030F02BF90EA020F0020704710F18A
:1005C000000F91EA030F58BF994208BF90422CBF19
:1005D000D8176FEAE37040F0010070474FEA410C12
:1005E0007FEA6C5C02D150EA013C07D14FEA430C30
:1005F0007FEA6C5CD6D152EA033CD3D05DF8040BA1
:10060000704700BF8446104662468C4619466346D2
:1006100000E000BF01B5FFF7B7FF002848BF10F1A9
:10062000000F01BD4DF808EDFFF7F4FF0CBF0120EE
:1006300000205DF808FB00BF4DF808EDFFF7EAFF6A
:1006400034BF012000205DF808FB00BF4DF808ED25
:10065000FFF7E0FF94BF012000205DF808FB00BF1A
:100660004DF808EDFFF7CEFF94BF012000205DF8A4
:1006700008FB00BF4DF808EDFFF7C4FF34BF0120B1
:1006800000205DF808FB00BF4FEA410212F500129E
:1006900015D211D56FF47873B3EB625212D94FEAC9
:1006A000C12343F0004343EA505311F0004F23FAB3
:1006B00002F018BF404270474FF00000704750EA08
:1006C000013005D111F0004008BF6FF000407047C5
:1006D0004FF00000704700BF53B94AB9002908BF66
:1006E00000281CBF4FF0FF314FF0FF3001F0DEB8A3
:1006F000ADF1080C6DE904CE00F006F8DDF804E079
:10070000DDE9022304B070472DE9F047089D044657
:100710008E46002B4DD18A42944669D9B2FA82F2B4
:1007200052B101FA02F3C2F1200120FA01F10CFAF0
:1007300002FC41EA030E94404FEA1C48210CBEFB28
:10074000F8F61FFA8CF708FB16E341EA034306FBB1
:1007500007F199420AD91CEB030306F1FF3080F040
:100760001F81994240F21C81023E63445B1AA4B28D
:10077000B3FBF8F008FB103344EA034400FB07F72F
:10078000A7420AD91CEB040400F1FF3380F00A8170
:10079000A74240F207816444023840EA0640E41B65
:1007A00000261DB1D4400023C5E900433146BDE811
:1007B000F0878B4209D9002D00F0EF800026C5E9B3
:1007C000000130463146BDE8F087B3FA83F6002ECB
:1007D0004AD18B4202D3824200F2F980841A61EB43
:1007E000030301209E46002DE0D0C5E9004EDDE761
:1007F00002B9FFDEB2FA82F2002A40F09280A1EB49
:100800000C014FEA1C471FFA8CFE0126200CB1FB9D
:10081000F7F307FB131140EA01410EFB03F0884296
:1008200008D91CEB010103F1FF3802D2884200F223
:10083000CB804346091AA4B2B1FBF7F007FB1011B5
:1008400044EA01440EFB00FEA64508D91CEB040453
:1008500000F1FF3102D2A64500F2BB800846A4EBAE
:100860000E0440EA03409CE7C6F12007B34022FA99
:1008700007FC4CEA030C20FA07F401FA06F31C43C8
:10088000F9404FEA1C4900FA06F3B1FBF9F8200CD5
:100890001FFA8CFE09FB181140EA014108FB0EF01B
:1008A000884202FA06F20BD91CEB010108F1FF3A6B
:1008B00080F08880884240F28580A8F10208614477
:1008C000091AA4B2B1FBF9F009FB101144EA014185
:1008D00000FB0EFE8E4508D91CEB010100F1FF3430
:1008E0006CD28E456AD90238614440EA0840A0FBC8
:1008F0000294A1EB0E01A142C846A64656D353D09E
:100900005DB1B3EB080261EB0E0101FA07F722FAC1
:1009100006F3F1401F43C5E9007100263146BDE8EA
:10092000F087C2F12003D8400CFA02FC21FA03F34D
:10093000914001434FEA1C471FFA8CFEB3FBF7F0CE
:1009400007FB10360B0C43EA064300FB0EF69E42F3
:1009500004FA02F408D91CEB030300F1FF382FD28C
:100960009E422DD9023863449B1B89B2B3FBF7F634
:1009700007FB163341EA034106FB0EF38B4208D90D
:100980001CEB010106F1FF3816D28B4214D9023E4E
:100990006144C91A46EA004638E72E46284605E76C
:1009A0000646E3E61846F8E64B45A9D2B9EB02083D
:1009B00064EB0C0E0138A3E74646EAE7204694E7CD
:1009C0004046D1E7D0467BE7023B614432E7304600
:1009D00009E76444023842E703685A004CBF43F019
:1009E000004323F000431844704700BF2DE9F8434B
:1009F00029B34F1E044615463E464FF0000808EB4B
:100A0000060101EBD171491004EBC1094846FFF71B
:100A1000E3FF0346C80008308F42204409D0AB42B0
:100A200009D8FFF7D9FF0138A8420AD201F101081D
:100A3000E5E7AB4205D9884501D04E1EDFE74FF010
:100A400000094846BDE8F883012807D0022807D0EE
:100A5000044B00280CBF184600207047024870471E
:100A600002487047211100082511000829110008CB
:100A700030B5234B83B004468D1E3BB301A92846F5
:100A8000AFF30080E8B101992A46FFF7AFFF0146B6
:100A9000B8B1FFF7A1FF4B68A064012B2CD0002B4D
:100AA00001F1040024DBFFF797FF0023C4E91303DF
:100AB0000368002B11DBFFF78FFF2061002003B0DC
:100AC00030BD00230920236103B030BD0D4B0E491A
:100AD000C91AC91018460191D6E7C3F30360FFF79E
:100AE000B3FF0028206114BF0020092003B030BDEF
:100AF0000123C4E91303DBE7002323610520DEE7BC
:100B000000000000F8AD0008D0AE00080368DA0766
:100B100010B5044606D49B0700F1480009D500F043
:100B20005BFC2368590709D51A070ED5DB0613D5D8
:100B300010BD00F049FC23685907F5D404F1D0003A
:100B400000F052FC23681A07F0D404F5A87000F0F6
:100B500053FC2368DB06EBD404F5E870BDE81040D5
:100B600000F08EBC092070470346006800B11844AD
:100B7000704700BF704700BF70B504460E46316C29
:100B80002046FFF775FF054688B9326C626123691C
:100B900032462146012098470828F0D0072806D180
:100BA0002846316CFFF7E6FF301D00F001FC03F032
:100BB000C1FE00BF2DE9F0470D1DD0F80C80D0F824
:100BC0001890074614460FCDADF5727D0DF10C0C53
:100BD000ACE80F000FCDACE80F000FCDACE80F0074
:100BE00095E80F0002AE4FF0000E8CE80F00C6F83B
:100BF00000E020E0336C7B614FF4F07231467AA85C
:100C000000F056FE3B697AAA394650469847889BC1
:100C100073642146CDE9006905463B463A4601200A
:100C2000C0470446E0B94FF4F0727AA9304600F0AC
:100C30003FFE082D1AD1316C3846FFF719FF0934F1
:100C40005FFA84FA05460028D4D0B36B73643A4641
:100C5000CDE900693B464AF010010120C04700B1D0
:100C6000092528460DF5727DBDE8F087072DF7D1DF
:100C70002046316CFFF77EFF03A800F099FB00BF10
:100C8000406C7047F0B5CB6B0B6401F1040C0E4661
:100C90000546BCE80F00F9B001AC0FC4BCE80F007A
:100CA0000FC4BCE80F000FC49CE80F004FF0FF37E3
:100CB00084E80F00009706E02B696A4629469847AA
:100CC0000828044608D110992846FFF7D1FE0028CD
:100CD000F2D0092079B0F0BD6846FFF717FF062C67
:100CE000F7D131462846FFF747FF00BFC160D96BF7
:100CF00082611964002219465CE700BF70B5C668BE
:100D000043690B64AEB903690A4604460D460146C1
:100D100002209847072805D008280FD129462046E9
:100D2000FFF72AFF3046296CFFF724FF281D00F04B
:100D30003FFB0122FFF73EFF03F0FCFD03F0FAFD4D
:100D4000C2681AB1CA6B0A64002233E79AE700BF8F
:100D5000704700BF836801460BB1012018477047F8
:100D6000012912D009D873B90F2A0CD800EB8202DE
:100D700018465368009A136070470339012994BFDD
:100D8000012002207047022070470846704700BFCC
:100D900000B585B00A46002303A900911946FFF764
:100DA000DFFF039805B05DF804FB00BF012912D0F6
:100DB00009D873B90F2A0CD800EB8200009A126888
:100DC0004260184670470339012994BF0120022070
:100DD0007047022070470846704700BF10B584B0C6
:100DE000002303AC039200940A461946FFF7DEFF86
:100DF00004B010BD70B5D36B136402F1040C05464A
:100E00000C46BCE80F00ADF50E7D0DF15C0EAEE8B2
:100E10000F00BCE80F00AEE80F00BCE80F00AEE822
:100E20000F009CE80F004FF0FF368EE80F0016967B
:100E300010E0FFF7D3FF214616A8A847034616AADD
:100E40006946082083B9049B9847052806460CD0BC
:100E5000092809D026996846FFF70AFE03466A4624
:100E60000C2116A8002BE4D0092616A8FFF74EFE89
:100E700030460DF50E7D70BD2DE9F04FCC6C89B07C
:100E80001E4654F8043B06940D46174600F003082E
:100E9000002E79D01A0C1B0405938DF81D20022317
:100EA000D2B204EB82048DF81C302B6DB8F1020F26
:100EB00008BFAC6B13F001030CD005A9384600F055
:100EC00079FB18B9082009B0BDE8F08F092009B0F6
:100ED000BDE8F08FD4F800A0BAF1000FEDD0019377
:100EE00000F008030293022E4AD0B4F800A0B4F830
:100EF00002900434AB6C29F0010B0F2138469B445F
:100F0000FFF746FF834539D82AF001039B44834508
:100F100094BF002001204FEA490303F002030AF0C6
:100F2000010A43EA0A03012B49D0022B32D0002BDD
:100F3000CCD1B8F1000F02D0002840F0CD800434AD
:100F4000D4F800A0BAF1000FCDD105A9384600F0C1
:100F500031FB0028BAD1019B002BB3D00F213846BA
:100F6000FFF716FF0E2102463846FFF737FF3846D7
:100F70006A4A0F21FFF732FF0720A8E70020CAE7DF
:100F8000D4F804900834B5E71B0205930323ADF8A9
:100F90001C308AE7236823F0004BB8F1000F45D1DD
:100FA00028B1029A002A5CD0BBF1000F74D0002B4C
:100FB00000DA04340BF1010B04EB8B04C0E7B8F149
:100FC000000F19D1B0B163682268991C4FEAD27240
:100FD0003FF47CAF05F158010133049100F090809B
:100FE000201DFFF7C1FD04AB01462846AFF300808A
:100FF00000285BD10834A3E70D213846D5F82090AE
:10100000FFF7C6FE8145F5D1AB6A9C42F2D120467E
:10101000FFF7E2FC0F2102463846FFF7DFFE3846B5
:101020002A460021FFF7DAFE072050E70D21384657
:10103000D5F82090FFF7ACFE814501D02368B6E7D4
:10104000AB6A9C42FAD104230022C5E90B23E318C2
:10105000C5F828B06B632368002B59DB012301938B
:10106000A8E705F15803CDF80C8004F1040AB04656
:1010700091461E460EE050460496FFF775FD00228D
:10108000014604AB284609F101090AF1040AAFF34D
:101090000080E0B9D945EED10D213846FFF778FE42
:1010A000049BAC62C5E90803062010E781460D21C8
:1010B0003846FFF76DFEB9F1020F286225D12B46A5
:1010C000049A43F82C2F6B62AC620620FFE646467A
:1010D0002368DDF80C806AE72046FFF77DFC0434C6
:1010E0000246AC6328461446AFF3008000283FF464
:1010F000EDAE384622460F21FFF770FE0720E6E6E8
:101100000D213846FFF744FE2862049B6B62DBE743
:101110000BF1010004EB80007AE700BF0000000043
:101120000023A9E60123A7E60223A5E62DE9F04363
:101130000646C3B015461C46042900F2BF80DFE80E
:1011400001F09E57BD2D0300002C40F0B780102AFF
:1011500000F2B4800368D80600F1F98020AF384669
:1011600000F098F9B46B394600234FF0010C0CFAEB
:1011700003F22A42204603F1010303D050F8042B66
:101180000A600446042B01F10401F0D13846B4632F
:1011900000F076F9002043B0BDE8F083032C40F066
:1011A0008D8094B204EB1243102B4FEA124500F2EB
:1011B000858003681F0700F1D28020AF384600F019
:1011C0003DF9B26B07EBC50154B10B46D01A01EBE8
:1011D000C401E4001D5843F8045B8B42FAD1224459
:1011E0003846B26300F008F9002043B0BDE8F08350
:1011F000012C4FEA124895B25CD0052C5ED108EB69
:101200000509B9F1200F59D8B8F10F0F79D9A946BE
:10121000002D40F08A80B36B6DB320AF4FF0000912
:1012200007EBC807043F03EBC50553F8041B47F859
:10123000041FAB42F9D1B9F1000F0FD06F46414600
:10124000102938BF102107EBC101843903EBC90510
:1012500053F8040B41F8040FAB42F9D1012C00F014
:101260008680B8F10F0FB56347D9B9F1000F02D0EE
:10127000684600F0B9F8002043B0BDE8F083ECB94F
:10128000806B23461FFA82FC0124371D04FA03F207
:1012900012EA0C0F014604D051F8042B47F8232022
:1012A00008460133102BF1D115F40055E3D1B0639A
:1012B000284604E008EB0503102B03D9022043B0B5
:1012C000BDE8F083B8F10F0FF8D83368DA0706D518
:1012D000304623F0030340F8483B00F079F820AF94
:1012E000384600F075F8B36B002D97D11D460435D4
:1012F000B563384600F068F8BDE720A800F06CF848
:10130000B3E7B9F1100F40D9A9F110093368D90733
:1013100008D523F00103304643F0020340F8483B70
:1013200000F05EF8B9F1000F32D033685A0720D4CC
:10133000B8F10F0F25D96F463846C8F1100500F0F7
:1013400057F8002DB36B7FF77AAF20AF68E723F033
:101350001003336006F5E87000F09CF8FEE623F019
:101360000803036000F5A87000F068F825E720AFD7
:10137000BDE7304623F0040340F8D03B00F038F8D6
:10138000D6E720A800F02CF8D5E74FF00009BDE71C
:10139000B8F10F0F3FF63FAF20AF384600F020F80E
:1013A000B36B002D7FF43AAF384600F015F862E7D2
:1013B00000F1340191E838009C46A6464CF8045DE3
:1013C00090E8FF0FE54600BD90EC210B704700BF91
:1013D00080EC210B704700BF90EC200B704700BFE2
:1013E00080EC200B704700BFD0EC200B704700BF93
:1013F000C0EC200B704700BFF0EC0201F0EC0211D2
:10140000F0EC0221F0EC0231F0EC0241F0EC025180
:10141000F0EC0261F0EC0271F0EC0281F0EC029170
:10142000F0EC02A1F0EC02B1F0EC02C1F0EC02D160
:10143000F0EC02E1F0EC02F1704700BFE0EC0201D9
:10144000E0EC0211E0EC0221E0EC0231E0EC0241C0
:10145000E0EC0251E0EC0261E0EC0271E0EC0281B0
:10146000E0EC0291E0EC02A1E0EC02B1E0EC02C1A0
:10147000E0EC02D1E0EC02E1E0EC02F1704700BFE9
:10148000B0FC0181B0FC0191B0FC01A1B0FC01B144
:10149000704700BFA0FC0181A0FC0191A0FC01A14C
:1014A000A0FC01B1704700BFEC4600B52DE900502B
:1014B0002DE9FF1F4FF000032DE90C0001A9FFF7F4
:1014C000E1FBDDF840E012B0704700BFEC4600B52C
:1014D0002DE900502DE9FF1F4FF000032DE90C000E
:1014E00001A9FFF70BFCDDF840E012B0704700BF28
:1014F000EC4600B52DE900502DE9FF1F4FF0000329
:101500002DE90C0001A9FFF71BFCDDF840E012B04B
:10151000704700BFEC4600B52DE900502DE9FF1FD4
:101520004FF000032DE90C0001ABFFF7DFFBDDF806
:1015300040E012B0704700BFEC4600B52DE9005006
:101540002DE9FF1F4FF000032DE90C0001AAFFF762
:1015500051FCDDF840E012B0704700BF027A03464C
:101560007AB9427AA2B14168013A10B4427208686D
:1015700003220C1D1A7202025C60000E10BC1A607D
:1015800070470068013A1A7202021A60000E704732
:10159000B020704700B585B0002303AA0092194619
:1015A0000C22FFF7DDFB039805B05DF804FB00BFDC
:1015B000F0E700BF2DE9F043054685B00E464FF039
:1015C00000083046FFF7CAFFB028044600F0BA8092
:1015D000070620D500F0F003802B4DD0902B36D09D
:1015E000A02B60D0B02B74D0C02B00F08B8000F00B
:1015F000F803D02B0BD100F007020132052342F48F
:10160000002201212846FFF791FD0028D9D00920AA
:1016100005B0BDE8F0838300DBB21F1D0DF10C099E
:1016200000231946CDF800900D222846FFF798FBBD
:10163000039BCDF8009060064CBFDF1BFF18002312
:101640000D22194628460397FFF7B0FBB9E700F0D3
:101650000D030D2BDBD003AF002300F00F02194662
:1016600000972846FFF77CFB002300970D221946C0
:101670002846FFF79BFBA4E73046FFF76FFF2402E5
:101680002043B0F5004FC2D004010023A2B2194696
:101690002846FFF74BFD0028B9D114F4004F18BFBE
:1016A0004FF001088DE7C24302F007034FF47F6259
:1016B0001A41010702F47F624FF0000348BF42F471
:1016C000804219462846FFF731FD00283FF479AFE4
:1016D0009DE7B1283BD0B22800F09380B32841D0D9
:1016E00000F0FC03B42B92D000F00702013201237A
:1016F00042F4002219462846FFF718FD00283FF45F
:1017000060AF84E7C6284AD0C72854D000F0F80359
:10171000C02B63D0C82868D0C9287FF478AF304682
:10172000FFF71CFF020300F00F0002F470220130EB
:101730000243012105232846FFF7F8FC00283FF467
:1017400040AF64E7B8F1000F18D0002060E73046E2
:10175000FFF704FF024600283FF459AF10F0F003F2
:10176000C8D054E73046FFF7F9FE020300F00F033C
:10177000013302F470221A430123BBE703AC434652
:101780000E22414600942846FFF7EAFA00944346A9
:101790000F2241462846FFF709FB404638E730460E
:1017A000FFF7DCFE020300F00F03013302F47022A6
:1017B0001A4303239EE73046FFF7D0FE0246002877
:1017C0003FF425AF10F0F0037FF421AF0421284649
:1017D000FFF7ACFC00283FF4F4AE18E700F00F026E
:1017E0000132032342F4202284E73046FFF7B6FE9D
:1017F00000F0F00200F00F031032013343EA02322E
:1018000097E700230DF10C090D221946CDF8009041
:101810002846FFF7A5FA3046FFF7A0FE02064FF074
:1018200002040CD5039B00F07F00A04018440390F5
:101830003046FFF793FE030604F10704F2D4039B3E
:10184000CDF8009000F07F02A24003F501731A4426
:101850000023039219460D222846FFF7A7FAB0E6A7
:1018600010B5C26C536884B04FF0030C08321C02F0
:1018700008461B0E01A9019402928DF80CC08DF848
:101880000D30FFF797FE04B010BD00BF08B5FFF79D
:101890008FFE806C08BD00BF08B5FFF789FEC06CE5
:1018A000C379023300EB830008BD00BF704700BF5F
:1018B000844641EA000313F003036DD1403A41D35B
:1018C00051F8043B40F8043B51F8043B40F8043B1A
:1018D00051F8043B40F8043B51F8043B40F8043B0A
:1018E00051F8043B40F8043B51F8043B40F8043BFA
:1018F00051F8043B40F8043B51F8043B40F8043BEA
:1019000051F8043B40F8043B51F8043B40F8043BD9
:1019100051F8043B40F8043B51F8043B40F8043BC9
:1019200051F8043B40F8043B51F8043B40F8043BB9
:1019300051F8043B40F8043B51F8043B40F8043BA9
:10194000403ABDD2303211D351F8043B40F8043B49
:1019500051F8043B40F8043B51F8043B40F8043B89
:1019600051F8043B40F8043B103AEDD20C3205D359
:1019700051F8043B40F8043B043AF9D2043208D051
:10198000D2071CBF11F8013B00F8013B01D30B88C3
:1019900003806046704700BF082A13D38B078DD0A1
:1019A00010F003038AD0C3F10403D21ADB071CBF73
:1019B00011F8013B00F8013B80D331F8023B20F8DD
:1019C000023B7BE7043AD9D3013A11F8013B00F816
:1019D000013BF9D20B7803704B7843708B7883709E
:1019E000604670470000000000000000000000009A
:1019F00000000000000000000000000000000000E7
:101A000090F800F06DE9024520F007016FF0000C3E
:101A100010F0070491F820F040F049804FF00004E6
:101A20006FF00700D1E9002391F840F000F10800C1
:101A300082FA4CF2A4FA8CF283FA4CF3A2FA8CF3F9
:101A40004BBBD1E9022382FA4CF200F10800A4FA60
:101A50008CF283FA4CF3A2FA8CF3E3B9D1E90423B4
:101A600082FA4CF200F10800A4FA8CF283FA4CF3EB
:101A7000A2FA8CF37BB9D1E9062301F1200182FAA5
:101A80004CF200F10800A4FA8CF283FA4CF3A2FAAB
:101A90008CF3002BC6D0002A04BF04301A4612BAB9
:101AA000B2FA82F2FDE8024500EBD2007047D1E9BC
:101AB000002304F00305C4F100004FEAC50514F04B
:101AC000040F91F840F00CFA05F562EA05021CBF1C
:101AD00063EA050362464FF00004A9E70000000036
:101AE00001F0FF01102A2BDB10F0070F08D010F8CF
:101AF000013B013A8B422DD010F0070F42B3F6D1D3
:101B0000F0B441EA012141EA014122F007047FF0EB
:101B100000070023F0E80256083C85EA010586EA42
:101B2000010685FA47F5A3FA87F586FA47F6A5FA7E
:101B300087F68EB9EED1F0BC01F0FF0102F007028A
:101B400032B110F8013B013A83EA010313B1F8D135
:101B50000020704701387047002D06BF3546033816
:101B6000073815F0010F07D1013015F4807F02BF4F
:101B7000013015F4C03F0130F0BC0138704700BFA0
:101B800070B54FF0FF0C4CF4E06C1CEA11541DBF13
:101B90001CEA135594EA0C0F95EA0C0F00F0DEF8DE
:101BA0002C4481EA030621EA4C5123EA4C5350EAC3
:101BB000013518BF52EA033541F4801143F4801314
:101BC00038D0A0FB02CE4FF00005E1FB02E506F0A5
:101BD0000042E0FB03E54FF00006E1FB03569CF0FA
:101BE000000F18BF4EF0010EA4F1FF04B6F5007F00
:101BF00064F5407404D25FEA4E0E6D4146EB060672
:101C000042EAC62141EA55514FEAC52040EA5E50FA
:101C10004FEACE2EB4F1FD0C88BFBCF5E06F1ED8A4
:101C2000BEF1004F08BF5FEA500E50F1000041EBDB
:101C3000045170BD06F0004646EA010140EA020088
:101C400081EA0301B4EB5C04C2BFD4EB0C0541EAAA
:101C5000045170BD41F480114FF0000E013C00F3BF
:101C6000AB8014F1360FDEBF002001F0004170BDE3
:101C7000C4F10004203C35DA0C341BDC04F11404FC
:101C8000C4F1200500FA05F320FA04F001FA05F288
:101C900040EA020001F0004221F0004110EBD37055
:101CA00021FA04F642EB06015EEA430E08BF20EA81
:101CB000D37070BDC4F10C04C4F1200500FA04F324
:101CC00020FA05F001FA04F240EA020001F00041B6
:101CD00010EBD37041F100015EEA430E08BF20EA29
:101CE000D37070BDC4F1200500FA05F24EEA020E71
:101CF00020FA04F301FA05F243EA020321FA04F0A0
:101D000001F0004121FA04F220EA020000EBD37056
:101D10005EEA430E08BF20EAD37070BD94F0000F56
:101D20000FD101F00046400041EB010111F4801F8A
:101D300008BF013CF7D041EA060195F0000F18BF3B
:101D4000704703F00046520043EB030313F4801F77
:101D500008BF013DF7D043EA0603704794EA0C0F31
:101D60000CEA135518BF95EA0C0F0CD050EA410647
:101D700018BF52EA4306D1D181EA030101F00041C4
:101D80004FF0000070BD50EA410606BF10461946EC
:101D900052EA430619D094EA0C0F02D150EA0136F8
:101DA00013D195EA0C0F05D152EA03361CBF104639
:101DB00019460AD181EA030101F0004141F0FE41D8
:101DC00041F470014FF0000070BD41F0FE4141F45C
:101DD000780170BD70B54FF0FF0C4CF4E06C1CEA5C
:101DE00011541DBF1CEA135594EA0C0F95EA0C0F11
:101DF00000F0A7F8A4EB050481EA030E52EA0335CC
:101E00004FEA013100F088804FEA03334FF08055EC
:101E100045EA131343EA12634FEA022245EA111519
:101E200045EA10654FEA00260EF000419D4208BFCA
:101E3000964244F1FD0404F5407402D25B084FEA77
:101E40003202B61A65EB03055B084FEA32024FF423
:101E500080104FF4002CB6EB020E75EB030E22BF80
:101E6000B61A754640EA0C005B084FEA3202B6EB40
:101E7000020E75EB030E22BFB61A754640EA5C00EF
:101E80005B084FEA3202B6EB020E75EB030E22BF7F
:101E9000B61A754640EA9C005B084FEA3202B6EB80
:101EA000020E75EB030E22BFB61A754640EADC003F
:101EB00055EA060E18D04FEA051545EA16754FEAA1
:101EC00006164FEAC30343EA52734FEAC2025FEABF
:101ED0001C1CC0D111F4801F0BD141EA00014FF04E
:101EE00000004FF0004CB6E711F4801F04BF01431F
:101EF0000020B4F1FD0C88BFBCF5E06F3FF6AFAE3B
:101F0000B5EB030C04BFB6EB020C5FEA500C50F1CA
:101F1000000041EB045170BD0EF0004E4EEA11314D
:101F200014EB5C04C2BFD4EB0C0541EA045170BD54
:101F300041F480114FF0000E013C90E645EA060E98
:101F40008DE60CEA135594EA0C0F08BF95EA0C0FC6
:101F50003FF43BAF94EA0C0F0AD150EA01347FF40E
:101F600034AF95EA0C0F7FF425AF104619462CE7E5
:101F700095EA0C0F06D152EA03353FF4FDAE104648
:101F8000194622E750EA410618BF52EA43067FF499
:101F9000C5AE50EA41047FF40DAF52EA43057FF429
:101FA000EBAE12E74FEA410C7FEA6C5C02D150EADB
:101FB000013C0AD14FEA430C7FEA6C5C02D152EA41
:101FC000033C02D14FF0000070474FF00100704712
:101FD000012800D070474FF6FF739942FAD110B52F
:101FE0000F4C9FED092B9FED0A1B9FED0B0B012161
:101FF000204600F005FA0B4A0B49204602F094FCFB
:1020000010BD00BFAFF30080000000000000000022
:102010009A9999999999D93F0000000000001040C1
:10202000E00900200000002041240008000000001A
:1020300010B584B0104C9FED0A1B9FED0B0B204692
:1020400000F015FA8DED000B8DED021B9FED080BD6
:10205000204600F0F9F904B010BD00BFAFF30080D6
:102060000000000000408F400000000000408FC0D2
:102070000000000000002440E009002010B51C4BC7
:102080001B68586A00225A6200B2FEF70BFA194C1C
:1020900041EC100B204600F0D4F9204600F002FB82
:1020A000204600F0D4F951EC100BFEF7EDFA0028B1
:1020B0000ADC002811DB104B1B680022DA630421C4
:1020C0000E4801F079F807E00B4B1B68D86300223B
:1020D00004210A4801F070F810BD074B1B6800F599
:1020E0007A70D86301220421044801F065F8F3E70F
:1020F0007C0B0020E0090020A40A0020000402401C
:1021000000B591B0002100913C2201A802F04AFCE8
:102110000A4B1B685B6A1BB2094A4021684602F001
:10212000D9FC6846FFF76CFC642382B26946054817
:1021300002F003FA11B05DF804FB00BFEC0A0020C6
:1021400008AA0008540C002008B54FF6FF710120C2
:10215000FFF73EFF08BD0000F0B58DB000240794E6
:10216000089409940A940B9401942F4B1A6B42F033
:1021700080021A631A6B02F080020192019A0294A3
:102180001A6B42F001021A631A6B02F0010202920A
:10219000029A03941A6B42F002021A631A6B02F05D
:1021A00002020392039A04941A6B42F010021A631B
:1021B0001A6B02F010020492049A05941A6B42F012
:1021C00008021A631A6B02F008020592059A069437
:1021D0001A6B42F004021A631B6B03F004030693AC
:1021E000069B124F22461021384600F0E5FF104DA5
:1021F00022460F21284600F0DFFF10230793012617
:10220000089609940A9407A9384600F0E3FE0F23C4
:1022100007930896099403230A9307A9284600F018
:10222000D9FE0DB0F0BD00BF0038024000000240F2
:102230000004024010B504460268074B9A4204D0DD
:102240002268064B9A4203D010BD00F045FEF7E726
:10225000FFF714FFF8E700BF001000400014004033
:1022600072B6FEE700B595B03022002108A802F052
:1022700099FB00230393049305930693079301931B
:102280001E4A116C41F080511164126C02F08052B0
:102290000192019A02931A4A116841F48041116037
:1022A000126802F480420292029A022208920121EC
:1022B0000B9110210C910E920F9308231093A823D9
:1022C000119312920423139308A800F07BFF88B99E
:1022D0000F23039302230493002305934FF4A05389
:1022E00006930793052103A801F0BAF920B915B0A8
:1022F0005DF804FBFFF7B4FFFFF7B2FF00380240C0
:102300000070004008B500F0CDFDFFF7ABFFFFF710
:1023100023FF00F049FD00F0B5FA00F0E5FA00F007
:1023200015FB00F06DFB00F0AFFC00F041FBFFF788
:102330007FFE174801F04CFB164C0021204601F0AF
:10234000A7FE0421204601F0A3FE0821204601F04B
:102350009FFE0C21204601F09BFE04210E4801F057
:1023600019FF04210D4801F015FF04210C4801F06C
:1023700011FF04210B4801F00DFF002210210A4833
:1023800000F01AFFFFF7BCFE642000F0B7FDF9E78C
:10239000C40B0020A40A0020EC0A0020340B00200B
:1023A0007C0B00200C0C0020000002402DE9F843BB
:1023B00055EC104BD1E90067D1E9028942464B4602
:1023C00030463946FEF72EF990B922462B46304664
:1023D0003946FEF74FF908B926462F4632463B46A6
:1023E00040464946FEF728F920B9B046B94601E013
:1023F000A046A94649EC108BBDE8F8830000000018
:10240000012202609FED0C7B80ED027B80ED047B5E
:1024100080ED067B80ED167B80ED187B80ED1A7BCE
:1024200080ED1C7B016080ED020B80ED041B80EDD4
:10243000062B7047AFF30080000000000000000092
:10244000704780ED080B704780ED0A0B704790EDE8
:10245000140B704788B058300FC80DF1200C0CE9F0
:102460000F009DED040B9DED061B08B0704710B5E5
:1024700094B084468DED0C0B8DED0E1B0DF1400ECE
:102480000CAB0FCB8EE80F0008AC84E80F00DDE941
:102490000823CCE91A23DDE90A23CCE91C230DF13A
:1024A000100E0CF168000FC88EE80F009DED040BB4
:1024B0009DED061B14B010BD88B068300FC80DF13B
:1024C000200C0CE90F009DED040B9DED061B08B0E0
:1024D00070472DE9D04F2DED028B86B0044690ED6C
:1024E000108B80ED128BD0E90CABC0E910ABD0E9BA
:1024F0000823D0E90A01FDF787FE06460F46C4E926
:102500000C67D4E9028952465B46FDF77DFE024620
:102510000B4640464946FFF733FB80468946D4E9DF
:10252000042330463946FFF72BFB02460B46404654
:102530004946FDF76BFECDE90001D4E90689524614
:102540005B4650465946FDF761FE02460B46304653
:102550003946FDF759FE02460B4651EC180BFDF7C4
:1025600055FE02460B4640464946FFF709FB024628
:102570000B46DDE90001FDF749FED4E91423FDF720
:1025800045FE41EC180BC4E914012046FFF794FF07
:102590008DED020B8DED041B02A9B0EE480AF0EEA2
:1025A000680A2046FFF702FF84ED140B06B0BDEC6D
:1025B000028BBDE8D08F2DE9D04F2DED048B88B074
:1025C000044690ED0C9B80ED109BD0E90823D0E9E8
:1025D0000A01FDF719FE06460F46C4E90C67D4E967
:1025E0000E23FDF713FE41EC180BC4E90E01204643
:1025F000FFF730FF8DED000B8DED021B6946B0EE4D
:10260000480AF0EE680A2046FFF7D0FE5BEC10ABFC
:1026100084ED0E0BD4E9022330463946FFF7B0FAB9
:1026200080468946D4E9042350465946FFF7A8FA64
:1026300002460B4640464946FDF7E8FD804689467E
:10264000D4E906AB53EC192B30463946FDF7DCFDD7
:1026500002460B4650465946FFF792FA02460B4691
:1026600040464946FDF7D2FDD4E91423FDF7CEFDDF
:1026700041EC180BC4E914012046FFF71DFF8DED56
:10268000040B8DED061B04A9B0EE480AF0EE680AB3
:102690002046FFF78BFE84ED140B08B0BDEC048BD5
:1026A000BDE8D08F10B504460368012B05D0022B7E
:1026B00006D02046FFF7CBFE10BDFFF70AFFF8E774
:1026C000FFF779FFF5E7000000B583B00022009224
:1026D0000D4B596C41F480415964596C01F48041AF
:1026E000009100990192196C41F0805119641B6CA2
:1026F00003F080530193019B0F216FF0010000F064
:1027000023FC03B05DF804FB0038024010B588B02C
:1027100001460022362000F017FC362000F04CFC69
:1027200000240194144B1A6C42F010021A641B6CC2
:1027300003F010030193019B02A903A801F066F8BE
:1027400001F044F843000D48A0FB03239B0C013B20
:102750000B480C4A026040F2E732C26043600461F9
:10276000846001F09FFA10B1012008B010BD044848
:1027700001F02EF9F9E700BF0038024083DE1B4369
:10278000580A002000100040FEE7FEE7FEE7FEE7E3
:10279000FEE7704708B5024801F063F908BD00BFC5
:1027A000580A002008B5024801F05BF908BD00BFD7
:1027B000C40B00200120704708B502F0C9F81623A9
:1027C00003604FF0FF3008BD08B54FF0FF31FFF751
:1027D000F3FFFEE770B50C461646002506E0AFF3A2
:1027E0000080214601F8010B01350C46B542F6DBAD
:1027F000304670BD70B50C461646002504E014F84E
:10280000010BAFF300800135B542F8DB304670BDF7
:102810004FF0FF3070474FF400534B60002070477B
:10282000012070470020704710B503460C4A0D493F
:102830000D48006840B10C4800680344521A9342A6
:1028400006D8094A136010BD0748084C0460F2E737
:1028500002F07EF80C2303604FF0FF30F3E700BF77
:102860000000022000040000A00A002070110020D7
:10287000034AD2F8883043F47003C2F888307047B6
:1028800000ED00E000B58DB02422002103A802F085
:1028900089F800230193029312484FF080420260AE
:1028A000436083604FF0FF32C260036183610323A2
:1028B000039301230593099303A901F04BFA50B93F
:1028C00000230193029301A9064801F0C9FC28B92D
:1028D0000DB05DF804FBFFF7C3FCF1E7FFF7C0FCA8
:1028E000F6E700BFEC0A002000B58DB024220021DD
:1028F00003A802F057F80023019302931148124AEB
:102900000260436083604FF6FF72C26003618361BF
:102910000323039301230593099303A901F01AFAF2
:1029200050B900230193029301A9064801F098FCD5
:1029300028B90DB05DF804FBFFF792FCF1E7FFF753
:102940008FFCF6E7340B00200004004000B58DB08A
:102950002422002103A802F025F80023019302930A
:102960001148124A0260436083604FF6FF72C260F2
:10297000036183610323039301230593099303A94F
:1029800001F0E8F950B900230193029301A9064828
:1029900001F066FC28B90DB05DF804FBFFF760FCA0
:1029A000F1E7FFF75DFCF6E77C0B00200008004034
:1029B00000B583B00023009301930F480F4A0260D3
:1029C00053224260836040F2E732C260836101F0CB
:1029D00069F950B90023009301936946064801F054
:1029E0003FFC28B903B05DF804FBFFF739FCF1E7C1
:1029F000FFF736FCF6E700BFC40B002000140040D0
:102A000000B58DB02422002103A801F0CBFF0023E4
:102A1000019302931248134A0260436083604FF6A9
:102A2000FF72C26003614361836103230393012347
:102A30000593099303A901F08DF950B9002301937F
:102A4000029301A9064801F00BFC28B90DB05DF80E
:102A500004FBFFF705FCF1E7FFF702FCF6E700BF18
:102A60000C0C00200004014000B583B00368154A37
:102A7000934205D0144A93420FD003B05DF804FB93
:102A800000230093114B5A6C42F001025A645B6CB4
:102A900003F001030093009BEFE7002201920B4B30
:102AA000196C41F0200119641B6C03F020030193A1
:102AB000019B0521372000F047FA372000F07CFA0F
:102AC000DBE700BF00000140001400400038024076
:102AD00000B58FB0002309930A930B930C930D93C9
:102AE0000368B3F1804F0BD0484A93422BD0484A39
:102AF000934248D0474A934266D00FB05DF804FB3A
:102B00000021019103F50E331A6C42F001021A64A0
:102B10001A6C02F001020192019A02911A6B42F0C2
:102B200001021A631B6B03F001030293029B48F23C
:102B30000203099302230A9301230D9309A936483E
:102B400000F048FAD9E700210391344B1A6C42F0A7
:102B500002021A641A6C02F002020392039A0491B0
:102B60001A6B42F002021A631B6B03F00203049318
:102B7000049B3023099302230A930D9309A9284843
:102B800000F028FAB9E700210591244B1A6C42F0B5
:102B900004021A641A6C02F004020592059A069166
:102BA0001A6B42F008021A631B6B03F008030693CA
:102BB000069B4FF44053099302230A930D9309A9EE
:102BC000184800F007FA98E700210791134B5A6C58
:102BD00042F002025A645A6C02F002020792079A0B
:102BE00008911A6B42F004021A631B6B03F0040392
:102BF0000893089BC023099302230A9303230D9390
:102C000009A9094800F0E6F977E700BF0004004091
:102C1000000800400004014000000240003802406B
:102C200000040240000C02400008024000B587B0DA
:102C300000230193029303930493059302680F4BBF
:102C40009A4202D007B05DF804FB002300930C4BBE
:102C50001A6B42F010021A631B6B03F0100300930F
:102C6000009B4FF4D4430193022302930123059365
:102C700001A9044800F0AEF9E4E700BF00000140FC
:102C8000003802400010024010B596B000241294A3
:102C90001394149415941094119409940A940B9419
:102CA0000C940D940E940F942022214601A801F05B
:102CB00079FE3B483B4B036007234360846040F24E
:102CC000E733C36004614461846100F0EBFF0028D6
:102CD0004BD14FF48053129312A9314801F049F9B6
:102CE000002845D12E4801F009F8002843D10023DF
:102CF0001093119310A92A4801F0B2FA00283DD18F
:102D00006023099300220A920B920C920D920E926C
:102D10000F9209A9224801F0B1F8002831D104220C
:102D200009A91F4801F0AAF870BB082209A91C488C
:102D300001F0A4F858BB0C2209A9194801F09EF82B
:102D400040BB0023019302930393049305934FF434
:102D500000520692089301A9114801F0C7FAE0B9A0
:102D60000F48FFF763FF16B010BDFFF779FAB0E721
:102D7000FFF776FAB6E7FFF773FAB8E7FFF770FAEE
:102D8000BEE7FFF76DFACAE7FFF76AFACDE7FFF78C
:102D900067FAD0E7FFF764FAD3E7FFF761FADFE7F6
:102DA000A40A00200000014008B50A480A4B03604D
:102DB0004FF4E133436000238360C36003610C225E
:102DC00042618361C36101F089FB00B908BDFFF76F
:102DD00047FAFBE7540C00200010014000B589B011
:102DE000002303930493059306930793026803F16A
:102DF000804303F588339A4202D009B05DF804FBA2
:102E00000021019103F594335A6C42F010025A6488
:102E10005A6C02F010020192019A02911A6B42F070
:102E200001021A631B6B03F001030293029B4FF430
:102E3000C06303930223049303230693072307939A
:102E400003A9024800F0C6F8D7E700BF000002401F
:102E5000DFF834D00D480E490E4A002302E0D45862
:102E6000C4500433C4188C42F9D30B4A0B4C0023D2
:102E700001E013600432A242FBD3FFF7F9FC01F03A
:102E80006DFDFFF73FFA70470000022000000020B0
:102E9000C0090020E0AE0008C00900207011002029
:102EA000FEE7000008B50B4B1A6842F400721A6086
:102EB0001A6842F480621A601A6842F480721A60DA
:102EC000032000F02FF80F20FFF720FCFFF7FCFB9A
:102ED000002008BD003C0240034A1168034B1B78E8
:102EE0000B441360704700BF980C002008000020BE
:102EF000014B1868704700BF980C002038B5044695
:102F0000FFF7F6FF0546B4F1FF3F02D0044B1B78F4
:102F10001C44FFF7EDFF401BA042FAD338BD00BFB1
:102F200008000020074AD36823F4E0631B041B0C4D
:102F3000000200F4E060034343F0BF6343F4003356
:102F4000D360704700ED00E000B5194BDB68C3F3B8
:102F50000223C3F1070CBCF1040F28BF4FF0040C8F
:102F600003F1040EBEF1060F18D9033B4FF0FF3EEC
:102F70000EFA0CFC21EA0C0199400EFA03F322EA46
:102F80000303194300280BDB0901C9B200F16040BB
:102F900000F5614080F800135DF804FB0023E5E7CD
:102FA00000F00F000901C9B2024B1954F4E700BF49
:102FB00000ED00E014ED00E0002807DB00F01F0248
:102FC000400901239340024A42F82030704700BF75
:102FD00000E100E000230F2B00F2E48070B582B026
:102FE00060E085685E000324B44025EA0405CC68EF
:102FF000B4402C438460456825EA02054C68C4F35C
:1030000000129A402A4342605AE0DC08083450F823
:10301000246003F0070295000F22AA4026EA020E60
:103020000A69AA4042EA0E0240F824205CE0072226
:1030300000E0002202FA0EF22A4302345A4D45F80B
:1030400024205A4A14686FEA0C0224EA0C054E68E0
:1030500016F4803F01D04CEA0405544C25606468A6
:1030600002EA04054E6816F4003F01D04CEA04055C
:103070004E4C6560A46802EA04054E6816F4801F91
:1030800001D04CEA0405494CA560E46822404D6833
:1030900015F4001F01D04CEA0402444CE2600133F5
:1030A0000F2B7DD801229A400C6804EA020C32EA08
:1030B0000404F4D14C6804F00304013C012C90D9C1
:1030C0004A6802F00302032A09D0C4685D000322A3
:1030D000AA4024EA02048A68AA402243C2604A68DD
:1030E00002F00302022A90D004684FEA430E032242
:1030F00002FA0EF224EA02044A6802F0030202FA1B
:103100000EF2224302604A6812F4403FC7D0002208
:103110000192274A546C44F480445464526C02F483
:1031200080420192019A9C08A51C1F4A52F8255022
:1031300003F003024FEA820E0F2202FA0EF225EA92
:1031400002051C4A90423FF474AF02F5806290423F
:103150001AD002F58062904218D002F58062904247
:1031600016D002F58062904214D002F5806290423F
:1031700012D002F58062904210D002F58062904237
:103180003FF455AF082255E7012253E7022251E7E9
:1031900003224FE704224DE705224BE7062249E7C9
:1031A00002B070BD704700BF00380140003C0140D4
:1031B00000380240000002400AB1816170470904F2
:1031C00081617047002800F0E08170B582B004464C
:1031D000036813F0010F3BD09F4B9B6803F00C0377
:1031E000042B2CD09C4B9B6803F00C03082B21D0A4
:1031F0006368B3F5803F4FD0B3F5A02F52D0964B04
:103200001A6822F480321A601A6822F480221A6046
:103210006368002B50D0FFF76BFE05468E4B1B6892
:1032200013F4003F14D1FFF763FE401B6428F5D967
:103230000320B1E1884B5B6813F4800FD8D0864B34
:103240001B6813F4003F03D06368002B00F09F81DC
:10325000236813F0020F54D07F4B9B6813F00C0FC0
:103260003ED07D4B9B6803F00C03082B33D0E36802
:10327000002B68D0794B01221A60FFF739FE054612
:10328000754B1B6813F0020F54D1FFF731FE401B42
:103290000228F5D903207FE16F4A136843F4803395
:1032A0001360B5E76C4B1A6842F480221A601A6802
:1032B00042F480321A60ABE7FFF71AFE0546664B10
:1032C0001B6813F4003FC3D0FFF712FE401B6428B5
:1032D000F5D9032060E1604B5B6813F4800FC6D121
:1032E0005D4B1B6813F0020F03D0E368012B40F025
:1032F0005081594A136823F0F803216943EAC10356
:103300001360236813F0080F42D063696BB3534B0B
:103310000122C3F8802EFFF7EBFD05464E4B5B6F95
:1033200013F0020F34D1FFF7E3FD401B0228F5D95B
:10333000032031E1484A136823F0F803216943EA86
:10334000C1031360DDE7454B00221A60FFF7D0FD93
:103350000546414B1B6813F0020FD2D0FFF7C8FDA2
:10336000401B0228F5D9032016E13C4B0022C3F88C
:10337000802EFFF7BDFD0546374B5B6F13F0020F44
:1033800006D0FFF7B5FD401B0228F5D9032003E165
:10339000236813F0040F77D02F4B1B6C13F0805F62
:1033A00033D1002301932C4B1A6C42F080521A64E3
:1033B0001B6C03F080530193019B0125284B1B6874
:1033C00013F4807F23D0A368012B34D0052B38D091
:1033D000214B1A6F22F001021A671A6F22F00402C1
:1033E0001A67A368002B3DD0FFF782FD06461A4BF3
:1033F0001B6F13F0020F46D1FFF77AFD801B41F2DD
:1034000088339842F3D90320C6E00025D6E7144A52
:10341000136843F480731360FFF76AFD0646104B90
:103420001B6813F4807FCED1FFF762FD801B02285A
:10343000F5D90320B0E0084A136F43F00103136786
:10344000CFE7054B1A6F42F004021A671A6F42F079
:1034500001021A67C5E700BF00380240000047427A
:1034600000700040FFF744FD0646524B1B6F13F0FF
:10347000020F08D0FFF73CFD801B41F288339842D1
:10348000F3D9032088E0EDB9A369002B00F0838015
:10349000484A926802F00C02082A51D0022B17D039
:1034A000454B00221A66FFF723FD0446414B1B687B
:1034B00013F0007F42D0FFF71BFD001B0228F5D957
:1034C000032069E03B4A136C23F080531364DBE76D
:1034D000394B00221A66FFF70BFD0546354B1B687A
:1034E00013F0007F06D0FFF703FD401B0228F5D93B
:1034F000032051E0E369226A1343626A43EA8213BC
:10350000A26A5208013A43EA0243E26A43EA0263CA
:10351000284A5360284B01221A66FFF7E9FC04464B
:10352000244B1B6813F0007F06D1FFF7E1FC001B62
:103530000228F5D903202FE000202DE000202BE009
:10354000012B2BD01B4B5B6803F48001E269914295
:1035500026D103F03F02216A8A4223D1616A47F6ED
:10356000C0721A40B2EB811F1ED103F44031A26A2F
:103570005208013AB1EB024F18D103F07063E26ACE
:10358000B3EB026F14D1002006E001207047012048
:1035900002E0012000E0002002B070BD0120FBE746
:1035A0000120F9E70120F7E70120F5E70120F3E723
:1035B0000120F1E7003802400000474208B5254BE2
:1035C0009B6803F00C03042B3FD0082B3FD1214B09
:1035D0005A6802F03F025B6813F4800F12D01D4B53
:1035E0005968C1F388111C480023A1FB0001FDF7B5
:1035F00073F8184B5B68C3F3014301335B00B0FB06
:10360000F3F025E0134B5968C1F3881C4FEA4C11C5
:10361000B1EB0C006EEB0E0E4FEA8E1343EA906393
:103620008101091A63EB0E03DB0043EA5173C90001
:1036300011EB0C0C43F10003990200234FEA8C209C
:1036400041EA9C51FDF748F8D3E7034800E00348FE
:1036500008BD00BF0038024040787D010024F4001E
:10366000002800F09B8070B50D4604464F4B1B6848
:1036700003F007038B4208D2CBB24C4A1370136895
:1036800003F007038B4240F08B80236813F0020F96
:1036900017D013F0040F04D0454A936843F4E05365
:1036A0009360236813F0080F04D0414A936843F4F1
:1036B000604393603E4A936823F0F003A1680B4394
:1036C0009360236813F0010F32D06368012B21D07F
:1036D0009A1E012A25D9364A126812F0020F61D0CB
:1036E00033498A6822F0030213438B60FFF700FC22
:1036F00006462F4B9B6803F00C036268B3EB820F06
:1037000016D0FFF7F5FB801B41F288339842F0D9C1
:10371000032042E0264A126812F4003FE0D1012063
:103720003BE0234A126812F0007FD9D1012034E037
:103730001E4B1B6803F00703AB4207D9EAB21B4BD1
:103740001A701B6803F00703AB422DD1236813F0F6
:10375000040F06D0164A936823F4E053E1680B4344
:103760009360236813F0080F07D0114A936823F47D
:103770006043216943EAC1039360FFF71FFF0C4BCD
:103780009B68C3F303130B4AD35CD8400A4B186001
:103790000A4B1868FEF7BAFF002070BD0120704781
:1037A0000120FAE70120F8E70120F6E7003C02409B
:1037B0000038024014AA0008040000200C00002079
:1037C000014B1868704700BF0400002008B5FFF7E0
:1037D000F7FF044B9B68C3F38223034AD35CD840B2
:1037E00008BD00BF0038024024AA000808B5FFF752
:1037F000E7FF044B9B68C3F34233034AD35CD840D2
:1038000008BD00BF0038024024AA00080F2303604F
:103810000B4B9A6802F0030242609A6802F0F002D1
:1038200082609A6802F4E052C2609B68DB0803F48D
:10383000E0530361034B1B6803F007030B60704701
:1038400000380240003C024030B4036A23F0010318
:103850000362036A4268846924F073040D682C4390
:1038600023F0020C8B6843EA0C03104DA84203D0EE
:1038700005F58065A84205D123F00803CD682B43E8
:1038800023F00403094DA84203D005F58065A84242
:1038900005D122F440724D692A438D692A43426062
:1038A00084614A684263036230BC70470000014093
:1038B00030B4036A23F480730362036A4268C46904
:1038C00024F0730C0C6844EA0C0523F400738C6834
:1038D00043EA0423114CA04203D004F58064A042C3
:1038E00006D123F40063CC6843EA042323F4806305
:1038F0000A4CA04203D004F58064A04207D122F410
:1039000040524C6942EA04128C6942EA0412426055
:10391000C5614A68C263036230BC70470000014061
:1039200030B4036A23F480530362036A4468C269B3
:1039300022F4E6420D6842EA052223F400538D6822
:1039400043EA0533094DA84203D005F58065A84236
:1039500004D124F480444D6944EA85144460C26172
:103960004A680264036230BC704700BF0000014037
:1039700010B4036A046A24F001040462846924F028
:10398000F00C4CEA021223F00A030B43826103623B
:103990005DF8044B704710B4046A24F0100404620C
:1039A0008469036A24F4704C4CEA023223F0A003C9
:1039B00043EA0113826103625DF8044B7047836838
:1039C00023F070030B4343F007038360704700004C
:1039D00090F83D30DBB2012B37D1022380F83D3027
:1039E0000268D36843F00103D3600368194A934225
:1039F00020D0B3F1804F1DD0A2F57C42934219D064
:103A000002F58062934215D002F58062934211D094
:103A100002F5784293420DD002F57052934209D0DC
:103A2000A2F59432934205D01A6842F001021A605E
:103A3000002070479A6802F00702062A07D01A6829
:103A400042F001021A6000207047012070470020F8
:103A5000704700BF000001407047704770477047D3
:103A6000704710B5044603681A6912F0020F11D0AE
:103A7000DA6812F0020F0DD06FF002021A61012312
:103A8000037703689B6913F0030F70D0FFF7E6FF1D
:103A90000023237723681A6912F0040F12D0DA6822
:103AA00012F0040F0ED06FF004021A610223237784
:103AB00023689B6913F4407F5FD02046FFF7CEFF59
:103AC0000023237723681A6912F0080F12D0DA68EE
:103AD00012F0080F0ED06FF008021A61042323774A
:103AE0002368DB6913F0030F4ED02046FFF7B6FFC3
:103AF0000023237723681A6912F0100F12D0DA68B6
:103B000012F0100F0ED06FF010021A610823237705
:103B10002368DB6913F4407F3DD02046FFF79EFF0A
:103B20000023237723681A6912F0010F03D0DA68A3
:103B300012F0010F36D123681A6912F0800F03D0FA
:103B4000DA6812F0800F34D123681A6912F0400F3E
:103B500003D0DA6812F0400F32D123681A6912F0EC
:103B6000200F03D0DA6812F0200F30D110BDFFF71C
:103B700074FF2046FFF773FF8AE72046FFF76DFFCB
:103B80002046FFF76CFF9BE72046FFF766FF2046C5
:103B9000FFF765FFACE72046FFF75FFF2046FFF722
:103BA0005EFFBDE76FF001021A612046FEF742FB9F
:103BB000C1E76FF080021A61204600F0C1FBC3E745
:103BC0006FF040021A612046FFF74AFFC5E76FF029
:103BD00020021A61204600F0B2FBC7E70368304AB2
:103BE000904212D0B0F1804F0FD0A2F57C429042AB
:103BF0000BD002F58062904207D002F580629042BD
:103C000003D002F57842904203D123F070034A6852
:103C10001343234A90422AD0B0F1804F27D0A2F517
:103C20007C42904223D002F5806290421FD002F580
:103C3000806290421BD002F57842904217D002F584
:103C40007052904213D002F5806290420FD002F57C
:103C5000806290420BD0A2F59832904207D002F5D4
:103C60008062904203D002F58062904203D123F437
:103C70004073CA68134323F080034A691343036007
:103C80008B68C3620B688362054B984203D003F5CF
:103C90008063984201D10B6903630123436170473C
:103CA0000000014040B310B5044690F83D30F3B138
:103CB000022384F83D30214651F8040BFFF78EFFB4
:103CC000012384F8463084F83E3084F83F3084F88D
:103CD000403084F8413084F8423084F8433084F82E
:103CE000443084F8453084F83D30002010BD80F821
:103CF0003C30FEF7B9FEDBE70120704740B310B55A
:103D0000044690F83D30F3B1022384F83D3021465B
:103D100051F8040BFFF762FF012384F8463084F862
:103D20003E3084F83F3084F8403084F8413084F8E5
:103D3000423084F8433084F8443084F8453084F8C5
:103D40003D30002010BD80F83C30FFF785FEDBE7FA
:103D500001207047002856D0F8B50D46044690F86B
:103D60003D30002B4AD0022384F83D30226893680E
:103D700023F4804323F007039360214651F8040B9A
:103D8000FFF72CFF21688A688B690E6A2868104348
:103D900023F4407C2CF0030CAA68AB6942EA0323AD
:103DA00043EA0C0323F47C4323F0FC03EA69EF6845
:103DB00047EA022C4CEA030C2A6A13032A6943EAF5
:103DC000021343EA0C0326F0AA066A686D6942EA08
:103DD00005123243886021688B6123681A620123CF
:103DE00084F8463084F83E3084F83F3084F842301E
:103DF00084F8433084F83D300020F8BD80F83C3032
:103E0000FEF766FEAFE701207047000030B4036A9A
:103E100023F010030362036A4468826922F4E642D5
:103E20000D6842EA052223F020038D6843EA05135A
:103E3000114DA84203D005F58065A84206D123F0B4
:103E40008003CD6843EA051323F040030A4DA842DE
:103E500003D005F58065A84207D124F440644D697C
:103E600044EA85048D6944EA8504446082614A68B5
:103E70008263036230BC70470000014038B590F89F
:103E80003C30012B66D004460D46012380F83C30BF
:103E90000C2A5AD8DFE802F0075959591B595959C9
:103EA0003059595944000068FFF7CEFC22689369E5
:103EB00043F0080393612268936923F0040393613C
:103EC0002268936929690B43936100203EE00068F2
:103ED000FFF79CFF2268936943F4006393612268B3
:103EE000936923F48063936122689369296943EAA3
:103EF00001239361002029E00068FFF7D9FC2268C4
:103F0000D36943F00803D3612268D36923F0040323
:103F1000D3612268D36929690B43D361002015E07E
:103F20000068FFF7FDFC2268D36943F40063D361A6
:103F30002268D36923F48063D3612268D369296935
:103F400043EA0123D361002000E00120002384F82C
:103F50003C3038BD0220FCE710B4846824F47F4C68
:103F600042EA03220A4342EA0C0282605DF8044BF3
:103F7000704790F83C30012B78D010B504460123EF
:103F800080F83C30022380F83D300268936823F4C7
:103F90007F4323F0770393600B68602B4CD029D8C4
:103FA000402B54D00CD9502B22D1CA6849680068E4
:103FB000FFF7DEFC50212068FFF701FD002005E03F
:103FC000202B0DD009D9302B0AD00120012384F8F1
:103FD0003D30002384F83C3010BD0BB1102B05D1CF
:103FE00019462068FFF7EBFC0020EFE70120EDE722
:103FF0000120EBE7B3F5805F34D0B3F5005F0CD15F
:10400000CB684A6889680068FFF7A6FF2268936852
:1040100043F4804393600020D8E7702B24D1CB6811
:104020004A6889680068FFF797FF2268936843F041
:10403000770393600020C9E7CA6849680068FFF702
:10404000AAFC60212068FFF7BAFC0020BEE7CA681E
:1040500049680068FFF78CFC40212068FFF7AFFC3F
:104060000020B3E70020B1E70120AFE7022070474E
:1040700001F01F01012303FA01FC036A23EA0C0388
:104080000362036A02FA01F10B4303627047000006
:1040900010B504460846002942D194F83E30DBB200
:1040A000013B18BF0123002B6ED1002851D1022300
:1040B00084F83E30012201462068FFF7D9FF2368CB
:1040C000334A934203D002F58062934203D15A6C83
:1040D00042F400425A6423682D4A934249D0B3F116
:1040E000804F46D0A2F57C42934242D002F58062D6
:1040F00093423ED002F5806293423AD002F5784274
:10410000934236D002F57052934232D0A2F59432E7
:1041100093422ED01A6842F001021A60002032E069
:10412000042908D008290DD094F84130DBB2013BB6
:1041300018BF0123B7E794F83F30DBB2013B18BF4B
:104140000123B0E794F84030DBB2013B18BF0123F4
:10415000A9E7042805D0082807D0022384F84130B5
:10416000A8E7022384F83F30A4E7022384F8403014
:10417000A0E79A6802F00702062A07D01A6842F000
:1041800001021A60002010BD0120FCE70020FAE7C0
:104190000000014038B5044690F83E00C0B294F8E3
:1041A0003F3094F84220D2B294F843C00D46B1B9E2
:1041B000012849D1012A48D1022384F83E3084F8ED
:1041C00042307DB3042D39D0012200212068FFF751
:1041D0004FFF012204212068FFF74AFF27E0DBB2EE
:1041E0005FFA8CFC042912D0012833D1012B2CD189
:1041F000012A31D1BCF1010F30D1022384F83E30C5
:1042000084F83F3084F8423084F84330D9E7012BFA
:104210001CD1BCF1010F1BD1022384F83F3084F87C
:104220004330CEE7012200212068FFF721FF2268FA
:10423000136843F001031360002006E0012204210B
:104240002068FFF715FFF2E7012038BD0120FCE7E9
:104250001846FAE70120F8E71846F6E71046F4E7B3
:1042600090F83C30012B3DD010B4012380F83C3055
:10427000022380F83D3003685A689C6822F0700C75
:104280000A6842EA0C025A600368174A93421AD03D
:10429000B3F1804F17D0A2F57C42934213D002F5C0
:1042A000806293420FD002F5806293420BD002F5F8
:1042B0007842934207D002F57052934203D0A2F5A0
:1042C0009432934204D124F080044A6814439C60E1
:1042D000012380F83D30002380F83C3018465DF81B
:1042E000044B7047022070470000014090F83C30BA
:1042F000012B22D0012380F83C30CB6823F440739B
:104300008A68134323F480634A68134323F40063E9
:104310000A68134323F480530A69134323F40053B8
:104320004A69134323F48043CA6913430268536400
:10433000002380F83C3018467047022070477047D1
:104340007047000038B504460268136923F44053EF
:10435000C1680B43136183680269134342691343C5
:10436000C2691A430168CB6823F4164323F00C0397
:104370001343CB600268536923F4407381690B4394
:1043800053610368314A934206D002F5806293423A
:1043900002D0FFF71BFA01E0FFF728FAE369B3F553
:1043A000004F29D00021031849411B1841F1000199
:1043B000C90041EA5371DB00181863684FEA8302B1
:1043C0004FEA937341F10001FCF786F9204DA5FBFC
:1043D00000325109642303FB11031B013233A5FB97
:1043E00003235B0903F0F00202EB011203F00F0359
:1043F000216813448B6038BD0023021843EB03018E
:10440000121841F10001C90041EA5271D20010189E
:1044100041F10001626892185B41FCF75DF90C4DB7
:10442000A5FB00325109642303FB1103DB00323387
:10443000A5FB03235B095A0002F4F87202EB011298
:1044400003F00703216813448B60D4E70010014098
:104450001F85EB512DE9F84305460F461646994650
:10446000DDF820802C68246837EA04030CBF4FF085
:10447000010C4FF0000CB4452DD1B8F1FF3FF1D045
:10448000B8F1000F05D0FEF733FDA0EB0900404561
:10449000E8D92A6802F10C0353E8003F23F4D073F3
:1044A0000C3242E800310029F3D12A6802F11403EA
:1044B00053E8003F23F00103143242E800310029A1
:1044C000F3D1202385F83D3085F83E30002385F870
:1044D0003C30032000E00020BDE8F88358B310B55D
:1044E000044690F83D300BB3242384F83D30226815
:1044F000D36823F40053D3602046FFF723FF2268DC
:10450000136923F4904313612268536923F02A034B
:1045100053612268D36843F40053D36000202064C1
:10452000202384F83D3084F83E3010BD80F83C30C4
:10453000FEF754FCD8E7012070472DE9F04182B026
:104540001E4690F83D30DBB2202B54D104460D4678
:104550009046002953D0002A53D090F83C30012BCC
:1045600051D0012380F83C3000230364212380F8DC
:104570003D30FEF7BDFC0746A4F82480A4F8268051
:10458000A368B3F5805F05D04FF00008002384F8DE
:104590003C3012E0236913B14FF00008F6E7A8465B
:1045A0000025F3E738F8023B2268C3F308035360A1
:1045B000E28C92B2013A92B2E284E38C9BB273B184
:1045C00000963B46002280212046FFF743FFE0B9DA
:1045D000002DE7D015F8012B23685A60E8E7009614
:1045E0003B46002240212046FFF734FF78B92023C4
:1045F00084F83D3000E0022002B0BDE8F0810120E7
:10460000FAE70120F8E70220F6E70320F4E70320A9
:10461000F2E708B54FF0E0231B6900F075F90128B7
:1046200000D108BD00F06EF8FBE743684B609A6864
:104630008A605160996008610368013303607047C4
:104640000369416882688A60416851605A688242A1
:1046500006D0002202611A68013A1A601868704791
:1046600082685A60F5E700000000000000000000CA
:10467000074B19680868B0E8F04F80F30988BFF36A
:104680006F8F4FF0000080F311887047AFF3008008
:104690009C0C002000000000000000000000000052
:1046A000EFF30980BFF36F8F154B1A681EF0100FE0
:1046B00008BF20ED108A20E9F04F10602DE90900B5
:1046C0004FF0500080F31188BFF34F8FBFF36F8F0F
:1046D00000F0D0F84FF0000080F3118809BC196891
:1046E0000868B0E8F04F1EF0100F08BFB0EC108A59
:1046F00080F30988BFF36F8F704700BFAFF300806E
:104700009C0C002008B54FF0500383F31188BFF3D1
:104710006F8FBFF34F8F00F021F828B14FF0E023E7
:104720004FF08052C3F8042D002383F3118808BD95
:10473000084B1B681B6823B9074B4FF0FF321A6008
:104740007047044B1B68DB68DB685A68024B1A60D1
:10475000704700BFA00C002010110020F8B53A4BA4
:104760001B68002B69D1394B1D6801351D60C5B927
:10477000374B1B681B6843B14FF0500383F311881C
:10478000BFF36F8FBFF34F8FFEE7314A1168314B94
:10479000186810601960304A136801331360FFF71E
:1047A000C7FF2E4B1B68AB423DD900272C4B1B6823
:1047B000DB6A03EB83039A002A4B9B58012B00D939
:1047C0000127294B1B68002B3CD001273AE0012729
:1047D0001F4B1B681B6843B31D4B1B68DB68DC6801
:1047E00063689D4226D3261D3046FFF729FFA36A42
:1047F0001BB104F11800FFF723FFE36A1B4A12689C
:10480000934201D9194A136003EB83039A0031469E
:1048100014481044FFF709FFE26A114B1B68DB6A7A
:104820009A42D4D2D4E70027D2E70C4B4FF0FF32A4
:104830001A60BBE7094A1360B8E70D4A13680133F1
:10484000136000273846F8BD081100202011002011
:10485000A00C0020A40C0020141100201011002036
:104860009C0C0020A80C0020241100200C1100201A
:10487000181100201F4B1B681BB11F4B01221A602F
:1048800070471D4B00221A601C4B1B6803EB830111
:104890008A001B498A585AB90BB1013BF6E74FF021
:1048A000500383F31188BFF36F8FBFF34F8FFEE781
:1048B00003EB830082000A4450684068506003EBB9
:1048C000830C4FEA8C020832114488420BD003EB70
:1048D000830291000A4A0A445268D168094A116069
:1048E000064A13607047406862469100044A0A44D1
:1048F0005060ECE708110020241100200C1100206A
:10490000A80C00209C0C0020054B1B6833B1054B04
:104910001B680BB1002070470220704701207047D0
:104920001C1100200811002003460846194600F01B
:1049300009B800BF08B5062000F086F80120FDF791
:1049400043FF00BF13460A460146022001F06EBE37
:10495000014B1868704700BF1000002070B50D4E65
:104960000D4D761BB61006D0002455F8043B0134DB
:104970009847A642F9D1094E094D761B06F036F844
:10498000B61006D0002455F8043B01349847A642DF
:10499000F9D170BDD0AE0008D0AE0008DCAE000882
:1049A000D0AE0008830730B548D0541E002A3FD04F
:1049B000CAB2034601E0013C3AD303F8012B9D073C
:1049C000F9D1032C2DD9CDB245EA05250F2C45EAA6
:1049D000054536D9A4F1100222F00F0C03F1200E88
:1049E000E6444FEA121C03F1100242E9045542E981
:1049F000025510327245F8D10CF1010214F00C0F7F
:104A000003EB021204F00F0C13D0ACF1040323F0FB
:104A100003030433134442F8045B9342FBD10CF0CC
:104A200003042CB1CAB21C4403F8012B9C42FBD1F5
:104A300030BD64461346002CF4D1F9E70346144612
:104A4000BFE71A46A446E0E738B5154B1F281D6896
:104A500020D8D5F8DC22044662B152F820304BB1A0
:104A6000012B15D0591C0FD0002542F82050984733
:104A7000284638BD284600F02BF822460146284635
:104A8000BDE8384000F00EB816232B60012038BD79
:104A9000002038BD16232B604FF0FF3038BD00BF1B
:104AA0001000002070B50C46084D03460026204635
:104AB00011461C462E60FDF77FFE431C00D070BDE2
:104AC0002B68002BFBD0236070BD00BF6C11002051
:104AD000FDF770BE0CB410B51F4B00291C689CB0CC
:104AE00035DB4FF40273ADF81430029006901FAB23
:104AF00018D001394FF6FF7204910791ADF81620D6
:104B000002A91E9A0193204600F02AF8421C01DAFD
:104B10008B232360029B00221A701CB0BDE810405A
:104B200002B070474FF6FF7204910791ADF816205E
:104B300002A91E9A0193204600F012F8431C01DAE4
:104B40008B2323601CB0BDE8104002B070478B235C
:104B500023604FF0FF30F5E7100000200000000058
:104B60002DE9F04F2DED0A8BCFB00C4691460AEEA1
:104B7000101A09930AEE900A02F04CFF036813938F
:104B80001846FCF73DFFA38912901A0603D5236946
:104B9000002B00F0A0874D469FEDA57B2B780024CD
:104BA00025AACDE92344CDE91544CDE917448DED7F
:104BB000107B1AEE909A0E942292904614940594CB
:104BC000002B00F0EC81AB4604E01BF8013F002B0A
:104BD00000F01A81252BF8D1BBEB050640F01881B7
:104BE0009BF80030002B00F0DA8100234FF0FF32F9
:104BF0009BF801708DF86B3006930BF1010B04925A
:104C00009A462B2420210BF1010BA7F120035A2BEC
:104C100000F23C81DFE813F0D5023A013A01D002FC
:104C20003A013A013A016A003A013A016502FE028C
:104C30003A017002E4023A01DF025B005B005B00B4
:104C40005B005B005B005B005B005B003A013A01CC
:104C50003A013A013A013A013A01D2013A013602E7
:104C60008500D201D201D2013A013A013A013A015A
:104C7000CB023A013A01C6003A013A013A01400238
:104C80003A0175023A013A014F073A013A013A01F5
:104C90003A013A013A013A013A01D2013A013602A7
:104CA0008700D201D201D201BE02870080003A0102
:104CB000B1023A019902C800870280003A0140021D
:104CC0007D002A073A013A012E073A017D00A7F13B
:104CD000300300221BF8017B02EB820203EB42024D
:104CE000A7F13003092BF5D906928EE7484602F06A
:104CF00091FE436817931846FCF782FE189006460B
:104D0000484602F087FE836815932021002E40F06C
:104D1000C2859BF8007076E79BF800704AF0200A85
:104D200071E74AF0100A1AF0200F099B00F09A81EF
:104D3000073323F007031A465B6852F8084B0992C1
:104D40001E46002BC0F26B85049B013301F03A80B4
:104D50002AF08003039354EA060300F0E7840A2C48
:104D600076F1000380F0908730340123DDF80CA049
:104D70008DF8374107930DF23715049907989DF880
:104D80006B3081424FF00002B8BF01460892039198
:104D90000C920F920D92002B00F08980039A013241
:104DA000039284E04AF0100A1AF0200600F04B81CA
:104DB000099B073323F007035E6853F8084B0993F8
:104DC0002AF480630393002300228DF86B20049A59
:104DD000551C00F02682039921F0800A54EA06014E
:104DE00040F01D82002A41F02980002B40F0A4846D
:104DF000039B13F00103079300F0428530238DF8E5
:104E000037310DF23715B8E7BBEB050600F0C78068
:104E1000249B33442493239B0133072BC8E900567A
:104E2000239309DC08F10808059B33440593D7E672
:104E300000000000000000001AEE101A22AA4846E6
:104E400003F0E2FC90B90DF19408EDE71AEE101AA8
:104E500022AA484603F0D8FC002800F09180089B65
:104E600023B108991AEE900A02F0CEFC1AEE103A1D
:104E70009B8913F0400F059B18BF4FF0FF3305933C
:104E800005984FB0BDEC0A8BBDE8F08F002F00F005
:104E9000868000238DF8D4708DF86B300122CDE927
:104EA0000723039204930C930F930D9335AD1AF0DF
:104EB00002020A9202D0039A023203921AF084028A
:104EC0000B9205D1069A0399561A002E00F30D8312
:104ED000249C8BB1239B0DF16B0201330134C8F884
:104EE0000020072B4FF0010224942393C8F80420DC
:104EF00000F3338308F108080A9B83B1239B1BAAA4
:104F000001330234C8F80020072B4FF0020224942A
:104F10002393C8F8042000F32D8308F108080B9BA5
:104F2000802B00F00F82049B079A9E1A002E00F33C
:104F300050821AF4807F40F0AB81079BC8F80430A0
:104F40001C44239BC8F800500133072B249423935F
:104F500000F3BE8208F108081AF0040F05D0069B82
:104F6000039A9D1A002D00F31283DDE9053203999F
:104F70008A42ACBF9B185B180593002C7FF466AF88
:104F800000232393089B1BB10899484602F03CFC80
:104F90000DF194085D462B78002B7FF414AE249B12
:104FA000002B3FF463AF1AEE104A1AEE101A1AEEF5
:104FB000900A22AA03F028FCA3895AE7099B073329
:104FC00023F00703B3EC027B8DED107BDDE91012BB
:104FD000099322F000430BEE101A0BEE903A4FF0BB
:104FE000FF32B0EE4B9AF0EE6B9AA54B51EC190BD9
:104FF000FCF7D8FF002840F06784A14B51EC190B57
:105000004FF0FF32FBF722FB002840F05D84DDE922
:10501000100100220023FBF70FFB002840F0A587BA
:105020009DF86B30974D984A2AF0800A0321472F4C
:10503000C8BF1546002208920391079104920C9272
:105040000F920D92A7E61AF0100340F033841AF085
:10505000400200F05B87099A52F8044B09921E4601
:10506000A4B2ADE653F8044B09931AF0100F40F0C8
:105070000E841AF0400F00F0068444F3C036334625
:1050800024B25EE6099A002352F8041B8DF86B30B7
:105090008DF8D410099201E7099C54F8045B0026AE
:1050A0008DF86B60002D00F0D986049B5A1C00F02F
:1050B00046851A4631462846FCF712FD089000281E
:1050C00001F07A80089B0496591B079121EAE1714F
:1050D0009DF86B300994039108960C960F960D96E7
:1050E00059E6099B53F8042B0692002A80F2C383E9
:1050F000069A0993524206929BF800704AF0040AFD
:1051000081E54AF010030393039B13F0200600F09F
:105110007383099B073323F007035E6853F8084B3A
:105120000993012350E6099B53F8044B099330235C
:105130004AF0020278278DF86C30544B1493039296
:105140008DF86D70002602233EE61AF0200F40F025
:1051500082841AF0100F40F078861AF0400F40F069
:105160004C871AF4007F00F07086099B059953F86C
:10517000042B099311705D460DE79BF800706C2FAE
:1051800003BF9BF801704AF0200A0BF1010B4AF0B3
:10519000100A38E59BF80070682F03BF9BF8017078
:1051A0004AF4007A0BF1010B4AF0400A2BE59BF818
:1051B00000704AF0080A26E59BF800704AF0010AE0
:1051C00021E59DF86B30002B7FF4A3AD9BF80070B8
:1051D0008DF86B1017E59BF800704AF0800A12E515
:1051E0005A4612F8017B2A2F01F0F381A7F1300310
:1051F000092B934698BF002200F2F4871BF8017B2D
:1052000002EB820203EB4202A7F13003092BF5D92E
:105210000492FAE49BF800708DF86B40F3E4CDF84B
:105220000CA0012B3FF49BAD022B4EAD12D1149A72
:1052300004F00F032409D35C05F8013D44EA067429
:10524000360954EA0603F3D14EAB5B1BDDF80CA024
:10525000079392E504F00703E40844EA4674F6086D
:10526000303354EA06012A4605F8013DF2D103998C
:10527000C80700F14C824EAB5B1B8A4607937CE566
:10528000FFFFEF7F30AA000834AA000840AA0008F8
:10529000652F40F3D780DDE9100100220023FBF7E2
:1052A000C1F9002800F0B481239BBC4AC8F8002053
:1052B000013301340122072B24942393C8F80420DE
:1052C00000F3848508F108081C9B0E9A934280F233
:1052D000CD82129B139A1C44C8E90023239B24947B
:1052E0000133072B239300F3E98308F108080E9B91
:1052F0005D1E002D7FF730AE102D239B41F34781BB
:10530000A74F0A97224610261AEE104A05E008F128
:105310000808103D102D40F3678501331032072B2C
:10532000C8E90076CDE92332F1DD22AA21464846BC
:1053300003F06AFA00287FF492ADDDE923320DF123
:105340009408E6E7069B039A9E1A002E7FF7EBADC2
:10535000102E239B41F34F8091490B9522461AEE64
:10536000105A0A910C4604E0103E102E08F108086D
:1053700019DD013310321021072BCDE92332C8F893
:105380000040C8F80410EFDD22AA294648460DF176
:10539000940803F039FA00287FF461AD103E102E16
:1053A000DDE92332E5DC0B9D144601330A9AC8F887
:1053B00000203444072BCDE92334C8F8046000F3FF
:1053C0002F85049B079A9E1A002E08F108087FF784
:1053D000B0AD102E239B40F3C48571480A9042461D
:1053E00021461AEE108A044604E0103E102E02F107
:1053F000080216DD013310311020072BCDE92331CF
:1054000014605060F1DD22AA4146484603F0FCF9E1
:1054100000287FF424AD103E102EDDE9233125AAAB
:10542000E8DC90460C4601330A9AC8F80020344460
:10543000072BCDE92334C8F8046000F3CF8108F1CD
:10544000080876E50E9B012B40F37C81239EC8F86B
:105450000050013601340123072E24942396C8F806
:10546000043000F3E78108F10808129B139A013613
:105470001C44072EC8E90023CDE9236400F3E8812A
:1054800008F10808DDE9100100220023FBF7CAF843
:10549000002840F076810E9B0136013B01351C440B
:1054A000072EC8F800502396C8F80430249400F35F
:1054B0005A8108F10808169BC8F8043001361C44CC
:1054C000072E1EABCDE92364C8F800307FF742AD4C
:1054D0001AEE101A22AA484603F096F900287FF423
:1054E000BEAC249C0DF1940836E5102EDDE9233284
:1054F00022DD199510241AEE105A04E0103E102EE9
:1055000008F1080817DD013326491032072BC8E9D6
:105510000014CDE92332F1DD22AA294648460DF1D7
:10552000940803F071F900287FF499AC103E102E16
:10553000DDE92332E7DC199DC8F804600133B418B3
:10554000072B184AC8F80020CDE9233400F3E18383
:105550009DF86B3008F10808BBE41AEE101A22AA75
:10556000484603F051F900287FF479AC249C0DF1F2
:105570009408C1E41AEE101A22AA484603F044F92E
:1055800000287FF46CAC249C0DF19408C7E4102D26
:10559000239B26DD1AEE107A10260AE070AA000876
:1055A00084AA000874AA0008103D102D08F108080C
:1055B00017DD0133C24A1034072BC8E90026CDE9B4
:1055C0002334F1DD22AA394648460DF1940803F050
:1055D0001BF900287FF443AC103D102DDDE9233486
:1055E000E7DC0133B64AC8F804502C44072BCDE958
:1055F0002334C8F800207FF7B8AC1AEE101A22AA9C
:10560000484603F001F900287FF429AC249CACE45F
:105610001C9A002A40F39683DDE90D739F42A8BFD0
:105620001F46002F0BDD239B01333C44072BC8E9A9
:1056300000572494239300F35C8508F108080D9E1D
:10564000002FA8BFF61B002E00F353820D9B1AF407
:10565000806F2B44079340F083821C9B0E9A9342E9
:1056600003DB1AF0010F00F0B884129A1399144466
:10567000C8E90012239A24940132072A239200F3E6
:10568000768508F108080E9A0799AE18761AD51A89
:10569000AE42A8BF2E46002E0DDD239BC8F8001099
:1056A00001333444072BC8F804602494239300F397
:1056B0009D8508F10808002EA8BFAD1B002D7FF7BF
:1056C0004BAC102D239B40F362877E4F0A972246F6
:1056D00010261AEE104A05E008F10808103D102DBA
:1056E00040F3828301331032072BC8E90076CDE9FD
:1056F0002332F1DD22AA2146484603F085F800282E
:105700007FF4ADABDDE923320DF19408E6E7302BF1
:105710003FF49AAD3023023A05F8013C4EAB9B1A98
:10572000DDF80CA007931546FFF727BB049B002B61
:105730007FF41AABDDF80CA00023049307934EAD61
:10574000FFF71BBB1AF0010F7FF480AE239EC8F851
:105750000050013601340123072E24942396C8F803
:1057600004307FF7A6AE1AEE101A22AA484603F0BC
:105770004BF800287FF473ABDDE923640DF1940846
:1057800099E60E9B5D1E002D7FF795AE102D40F320
:1057900015874C4ACDF810A023461AEE10AA0A929B
:1057A0001027144605E008F10808103D102D40F3BD
:1057B0009D8301361033072EC8E90047CDE92363E6
:1057C000F1DD22AA5146484603F01EF800287FF476
:1057D00046ABDDE923630DF19408E6E71AEE101AF3
:1057E00022AA484603F010F800287FF438AB249C26
:1057F0000DF19408FFF79DBB039B13F0100340F0DD
:105800002381039A12F0400200F09B83099A52F818
:10581000044B09921E46A4B20123FFF7D5BA2D23EB
:1058200064428DF86B3066EB4606CDF80CA0012380
:10583000FFF7CDBA1AEE101A22AA484602F0E4FF8A
:1058400000287FF40CABDDE923640DF194080CE62D
:105850001AEE101A22AA484602F0D6FF00287FF45A
:10586000FEAADDE923640DF194080BE61AF0010F9E
:105870003FF472AB2DE59BF800700993FFF7C3B9B5
:105880004EADFFF77ABA1AF4007F40F0B083E61706
:105890003346FFF756BA159B002B3FF43AAA159BE7
:1058A0001B78002B3FF435AA9BF800704AF4806AFD
:1058B000FFF7A9B9099B53F8044B0993FFF780BA86
:1058C00074AA000884AA0008DDE9100102460B460C
:1058D000FCF768FB002840F0C385612F00F0868547
:1058E000412F00F09484049B013327F0200303939D
:1058F00000F0B083472B00F08285DDE910014AF407
:105900008072002907924FF00003C0F2248541EC19
:10591000180B0A930893039B462B00F0F883452B42
:1059200000F04E85B0EE480AF0EE680A20AB019315
:105930001DAB0093049A1CAB0221484600F060FFA7
:10594000039B472B054640F069861AF0010F564627
:10595000DDF81CA040F00B85209B5B1B0E93039B86
:10596000472B00F08B83039B462B00F00F841C9B7E
:105970000D930D9B039A013B412A1C9300F0D785A0
:10598000FAB20021002BB8BF0D9B8DF87820BABF6A
:10599000C3F101032D222B22092B8DF8792040F32E
:1059A000B7850DF18704DFF898C3224610468CFBBB
:1059B0000321DA17C2EBA10202EB8201A3EB410142
:1059C000303100F8011C19466329134600F1FF32FB
:1059D000ECDC3033D9B2831E9C4202F8011C40F249
:1059E000048613460DF17A0201E013F8011B02F858
:1059F000011B9C42F9D10DF189030DF17A021B1AAA
:105A000013441EAA9B1A16930E9B169A012B1A4436
:105A1000079240F3B785079B129A13440793079A9E
:105A2000002326F4806622EAE27246F4807A0C9320
:105A300003920F930D930A9B002B40F04583049330
:105A40009DF86B30FFF7A7B9099B53F8044B0993F6
:105A50000123FFF7B9B9099B059853F8041B099373
:105A6000C217C1E900025D46FFF795BACDF80CA058
:105A7000FFF74ABBAF4B14931AF0200600F0EF80FB
:105A8000099B073323F007035E6853F8084B09931B
:105A90001AF0010F09D054EA060306D030238DF81E
:105AA0006D704AF0020A8DF86C302AF4806303931B
:105AB0000223FFF789B9A04B1493DDE71AEE101A01
:105AC00022AA484602F0A0FE00287FF4C8A9249C20
:105AD0000DF194080BE41AEE900A402101F0A6FFA4
:105AE00020602061002800F0848540236361FFF777
:105AF00052B8102E239B40F3698590480A90424685
:105B000021461AEE108A1027044604E00832103E9F
